:020000020000FC
:103FFE0000000000010000020200000403000006A1
:10400E00040000080500010006000102070001047B
:10401E0008000106090001080A0002000B00020256
:10402E000C0002040D0002050E0002070F0002092B
:10403E001000030111000303120003051300030710
:10404E0014000309150004011600040317000405EB
:10405E0018000407190004091A0005011B000503C6
:10406E001C0005051D0005071E0005091F000601A1
:10407E00200006032100060522000607230006097C
:10408E002400070125000703260007052700070661
:10409E0028000708290008002A0008022B0008043F
:1040AE002C0008062D0008082E0009002F0009021A
:1040BE0030000904310009063200090833010000FE
:1040CE0034010002350100043601000637010008F4
:1040DE0038010100390101023A0101043B010106D8
:1040EE003C0101083D0102003E0102023F010204B3
:1040FE004001020541010207420102094301030189
:10410E004401030345010305460103074701030963
:10411E0048010401490104034A0104054B01040747
:10412E004C0104094D0105014E0105034F01050522
:10413E0050010507510105095201060153010603FD
:10414E0054010605550106075601060957010701D8
:10415E0058010703590107055A0107065B010708B5
:10416E005C0108005D0108025E0108045F0108069B
:10417E006001080861010900620109026301090476
:10418E006401090665010908660200006702000263
:10419E0068020004690200066A0200086B02010050
:1041AE006C0201026D0201046E0201066F0201082B
:1041BE007002020071020202720202047302020510
:1041CE0074020207750202097602030177020303E5
:1041DE0078020305790203077A0203097B020401C0
:1041EE007C0204037D0204057E0204077F0204099B
:1041FE00800205018102050382020505830205077F
:10420E008402050985020601860206038702060559
:10421E0088020607890206098A0207018B02070334
:10422E008C0207058D0207068E0207088F02080012
:10423E0090020802910208049202080693020808EE
:10424E0094020900950209029602090497020906D2
:10425E0098020908990300009A0300029B030004C8
:10426E009C0300069D0300089E0301009F030102AC
:10427E00A0030104A1030106A2030108A303020087
:10428E00A4030202A5030204A6030205A703020764
:10429E00A8030209A9030301AA030303AB03030541
:1042AE00AC030307AD030309AE030401AF0304031C
:1042BE00B0030405B1030407B2030409B3030501F7
:1042CE00B4030503B5030505B6030507B7030509D2
:1042DE00B8030601B9030603BA030605BB030607B6
:1042EE00BC030609BD030701BE030703BF03070591
:1042FE00C0030706C1030708C2030800C303080270
:10430E00C4030804C5030806C6030808C70309004A
:10431E00C8030902C9030904CA030906CB03090825
:10432E00CC040000CD040002CE040004CF0400062D
:10433E00D0040008D1040100D2040102D304010408
:10434E00D4040106D5040108D6040200D7040202E3
:10435E00D8040204D9040205DA040207DB040209B8
:10436E00DC040301DD040303DE040305DF0403079D
:10437E00E0040309E1040401E2040403E304040578
:10438E00E4040407E5040409E6040501E704050353
:10439E00E8040505E9040507EA040509EB0406012E
:1043AE00EC040603ED040605EE040607EF04060909
:1043BE00F0040701F1040703F2040705F3040706EE
:1043CE00F4040708F5040800F6040802F7040804CC
:1043DE00F8040806F9040808FA040900FB040902A7
:1043EE00FC040904FD040906FE040908FF0500008B
:100000000C9434000C9499000C949A000C949B006E
:100010000C949C000C949D000C949E000C949F00EA
:100020000C94A0000C94A1000C94A2000C94A300CA
:100030000C94A4000C94A5000C94A6000C94A700AA
:100040000C94A8000C94B2000C94B3000C94B4006F
:100050000C94B5000C94B6000C94B7000C94B80046
:100060000C94B9000C94BA0008E00EBF0FEF0DBF5E
:100070000FE70AB900E70BB900E80093610004E05C
:100080000093610005E005BD06EF06BD01E00093A9
:100090006E0022E302E800937A0000E600937C0001
:1000A0007894203039F422E3FFE3EEEFFF93EF93EF
:1000B0000E945C000000F5CF0F911F91EF91FF911E
:1000C0001F930F9300917A0010E4012B00937A00A4
:1000D00000917A0010E40123D9F70091790014E02F
:1000E000019FE00DF11D0591059100670BB90F7699
:1000F0000BB90000000000000000000000670BB911
:10010000059100670BB90F750BB9000000000000E6
:100110000000000000670BB9059100670BB90F7371
:100120000BB90000000000000000000000670BB9E0
:100130000895189518951895189518951895189567
:100140001895189518951895189518951895189547
:100150000F930FB70F9306EF06BD2A950F910FBFB0
:100160000F91189518951895189518951895189534
:0601700018951895189582
:00000001FF
